:100000000A128A11FC2F00308A000408840A820731
:10001000003445344D34423445344434443445345A
:1000200044340034533459345334543445344D3407
:040030005334003411
:100EDA00F200720883120313870008148810081599
:100EEA002130F1007630F000F00B792FF10B792FD9
:100EFA0000008312031308110800F3007308831219
:100F0A00031387000810881008150230F2004530D4
:100F1A00F100A930F000F00B902FF10B902FF20B9B
:100F2A00902F972F831203130811080038300A12E2
:100F3A008A1182270A128A1106300A128A11822716
:100F4A000A128A110C300A128A1182270A128A118D
:100F5A0001300A128A1182270A128A110800F50042
:100F6A00F601C82F7608750784000A128A11032031
:100F7A000A128A110A128A116D270A128A1101307D
:100F8A00F4007408F60773087602031CCD2FCE2FDF
:100F9A00B72F080083160313870188010A128A11E2
:100FAA009B270A128A1183300A128A1182270A128F
:100FBA008A110830F7007708F30001300A128A1103
:100FCA00B4270A128A11C3300A128A1182270A1216
:100FDA008A110730F7007708F3000A300A128A11DB
:100FEA00B4270A128A11D82F0A128A1100288301FB
:060FFA000A128A11CF2F3C
:00000001FF
