:100000000A128A11FC2F00308A000408840A820731
:1000100000345434483441344E344B342034593451
:100020004F3455342034533441344C3441344D34FE
:100030002E342E342E3400345034723465347334FC
:1000400073342034533454344F34503400345034E7
:1000500052344534533453342034533457343134C8
:1000600000345034523445345334533420345334F0
:1000700057343234003450345234453453345334CA
:1000800020345334573433340034573465346C34AB
:0A00900063346F346D3465340034BE
:100BC40000300A128A11EF250A128A1101300A1222
:100BD4008A11EF250A128A110800F3008312031305
:100BE400061173080A128A1109260A128A1183123D
:100BF400031386150B30F2006230F100F10B002E66
:100C0400F20B002E00008312031386110800F0007B
:100C1400701C0D2E0E2E122E831203130616152E83
:100C2400831203130612F01C182E192E1B2E86167F
:100C34001C2E8612701D1F2E202E222E0617232EE8
:100C44000613F01D262E272E292E86172A2E8613EC
:100C54000800F700F501F601422E750877078400B5
:100C64000A128A1103200A128A110A128A115026C2
:100C74000A128A110130F5070318F60A0030F60744
:100C84007508770784000A128A1103200A128A1150
:100C9400003A031D4E2E4F2E2F2E0800F400740828
:100CA4000F39F1007108F2007408F039F10071088D
:100CB400F3008312031306157308F10004300310C4
:100CC400F10CFF3E031D612E71080A128A110926D8
:100CD4000A128A118312031386151A30F100F10BDC
:100CE400712E000083120313861172080A128A11EE
:100CF40009260A128A118312031386151A30F10089
:100D0400F10B822E00008312031386110800F700F2
:100D14007703031D8E2E8F2EB22E74087F3EF500AE
:100D24007508FA007A08F50004300310F50CFF3E4C
:100D3400031D972E7508F6007608F8007A080F3917
:100D4400F5007508F90078080A128A11EF250A12CD
:100D54008A1179080A128A11EF250A128A11DA2EE9
:100D640002307706031DB72EB82EDA2E7408BF3E64
:100D7400F5007508FA007A08F50004300310F50C44
:100D8400FF3E031DC02E7508F6007608F8007A08A9
:100D94000F39F5007508F90078080A128A11EF2551
:100DA4000A128A1179080A128A11EF250A128A1185
:100DB400080000300A128A1109260A128A113430F6
:100DC400F500F130F400F40BE52EF50BE52EEA2ED8
:100DD40003300A128A11EF250A128A110D30F50028
:100DE400FB30F400F40BF42EF50BF42EF92E033043
:100DF4000A128A11EF250A128A111D30F50091306A
:100E0400F400F40B032FF50B032F03300A128A119D
:100E1400EF250A128A1102300A128A11EF250A12EA
:100E24008A1102300A128A11EF250A128A11083037
:100E34000A128A11EF250A128A1100300A128A1145
:100E4400EF250A128A110C300A128A11EF250A12B0
:100E54008A1100300A128A11EF250A128A1106300B
:100E64000A128A11EF250A128A1108008316031345
:100E740086010810881008118811081288120813B6
:100E84008813071487140715831203130810881096
:100E94000811881108128812081388130A128A117B
:100EA400DB260A128A110A128A11E2250A128A1111
:100EB400F401F40A01300A128A1189260A128A11ED
:100EC4003D300A128A112B260A128A11F401F40AFF
:100ED40002300A128A1189260A128A111F300A1254
:100EE4008A112B260A128A1183120313071C7B2FE3
:100EF4007C2FA72F0A128A11E2250A128A11F40103
:100F0400F40A01300A128A1189260A128A11293038
:100F14000A128A112B260A128A110230FD000430AB
:100F2400FC00BA30FB00FB0B952FFC0B952FFD0B3F
:100F3400952F0000831203130814881408158815CC
:100F44000816881608178817762F871CAA2FAB2F28
:100F5400C82F0A128A11E2250A128A11F401F40A2E
:100F640001300A128A1189260A128A1133300A12B0
:100F74008A112B260A128A1183120313081088146B
:100F840008118815081288160813A52F071DCB2FE2
:100F9400CC2FF82F0A128A11E2250A128A11F401C1
:100FA400F40A01300A128A1189260A128A111430AD
:100FB4000A128A112B260A128A11F401F40A023049
:100FC4000A128A1189260A128A1101300A128A1118
:100FD4002B260A128A118312031308148810081589
:100FE40088110816881208178813762F762F0A128C
:0C0FF4008A11002883010A128A11382F8C
:02400E007A3FF7
:00000001FF
